{
  "_format": "hh-sol-artifact-1",
  "contractName": "Token",
  "sourceName": "contracts/Token.sol",
  "abi": [
    {
      "inputs": [],
      "stateMutability": "nonpayable",
      "type": "constructor"
    },
    {
      "anonymous": false,
      "inputs": [
        {
          "indexed": true,
          "internalType": "address",
          "name": "_from",
          "type": "address"
        },
        {
          "indexed": true,
          "internalType": "address",
          "name": "_to",
          "type": "address"
        },
        {
          "indexed": false,
          "internalType": "uint256",
          "name": "amount",
          "type": "uint256"
        }
      ],
      "name": "Transfer",
      "type": "event"
    },
    {
      "inputs": [
        {
          "internalType": "address",
          "name": "account",
          "type": "address"
        }
      ],
      "name": "balanceOf",
      "outputs": [
        {
          "internalType": "uint256",
          "name": "",
          "type": "uint256"
        }
      ],
      "stateMutability": "view",
      "type": "function"
    },
    {
      "inputs": [
        {
          "internalType": "uint256",
          "name": "amount",
          "type": "uint256"
        },
        {
          "internalType": "bool",
          "name": "isFront",
          "type": "bool"
        }
      ],
      "name": "bet",
      "outputs": [
        {
          "internalType": "bool",
          "name": "",
          "type": "bool"
        }
      ],
      "stateMutability": "nonpayable",
      "type": "function"
    },
    {
      "inputs": [],
      "name": "generateRandomNumber",
      "outputs": [
        {
          "internalType": "uint256",
          "name": "",
          "type": "uint256"
        }
      ],
      "stateMutability": "view",
      "type": "function"
    },
    {
      "inputs": [],
      "name": "name",
      "outputs": [
        {
          "internalType": "string",
          "name": "",
          "type": "string"
        }
      ],
      "stateMutability": "view",
      "type": "function"
    },
    {
      "inputs": [],
      "name": "owner",
      "outputs": [
        {
          "internalType": "address",
          "name": "",
          "type": "address"
        }
      ],
      "stateMutability": "view",
      "type": "function"
    },
    {
      "inputs": [],
      "name": "symbol",
      "outputs": [
        {
          "internalType": "string",
          "name": "",
          "type": "string"
        }
      ],
      "stateMutability": "view",
      "type": "function"
    },
    {
      "inputs": [],
      "name": "totalSupply",
      "outputs": [
        {
          "internalType": "uint256",
          "name": "",
          "type": "uint256"
        }
      ],
      "stateMutability": "view",
      "type": "function"
    },
    {
      "inputs": [
        {
          "internalType": "address",
          "name": "to",
          "type": "address"
        },
        {
          "internalType": "uint256",
          "name": "amount",
          "type": "uint256"
        }
      ],
      "name": "transfer",
      "outputs": [],
      "stateMutability": "nonpayable",
      "type": "function"
    }
  ],
  "bytecode": "0x60806040526040518060400160405280600981526020017f436f696e20466c69700000000000000000000000000000000000000000000000815250600090816200004a9190620003ae565b506040518060400160405280600381526020017f434654000000000000000000000000000000000000000000000000000000000081525060019081620000919190620003ae565b50620f4240600255348015620000a657600080fd5b50600254600460003373ffffffffffffffffffffffffffffffffffffffff1673ffffffffffffffffffffffffffffffffffffffff1681526020019081526020016000208190555033600360006101000a81548173ffffffffffffffffffffffffffffffffffffffff021916908373ffffffffffffffffffffffffffffffffffffffff16021790555062000495565b600081519050919050565b7f4e487b7100000000000000000000000000000000000000000000000000000000600052604160045260246000fd5b7f4e487b7100000000000000000000000000000000000000000000000000000000600052602260045260246000fd5b60006002820490506001821680620001b657607f821691505b602082108103620001cc57620001cb6200016e565b5b50919050565b60008190508160005260206000209050919050565b60006020601f8301049050919050565b600082821b905092915050565b600060088302620002367fffffffffffffffffffffffffffffffffffffffffffffffffffffffffffffffff82620001f7565b620002428683620001f7565b95508019841693508086168417925050509392505050565b6000819050919050565b6000819050919050565b60006200028f6200028962000283846200025a565b62000264565b6200025a565b9050919050565b6000819050919050565b620002ab836200026e565b620002c3620002ba8262000296565b84845462000204565b825550505050565b600090565b620002da620002cb565b620002e7818484620002a0565b505050565b5b818110156200030f5762000303600082620002d0565b600181019050620002ed565b5050565b601f8211156200035e576200032881620001d2565b6200033384620001e7565b8101602085101562000343578190505b6200035b6200035285620001e7565b830182620002ec565b50505b505050565b600082821c905092915050565b6000620003836000198460080262000363565b1980831691505092915050565b60006200039e838362000370565b9150826002028217905092915050565b620003b98262000134565b67ffffffffffffffff811115620003d557620003d46200013f565b5b620003e182546200019d565b620003ee82828562000313565b600060209050601f83116001811462000426576000841562000411578287015190505b6200041d858262000390565b8655506200048d565b601f1984166200043686620001d2565b60005b82811015620004605784890151825560018201915060208501945060208101905062000439565b868310156200048057848901516200047c601f89168262000370565b8355505b6001600288020188555050505b505050505050565b610ba780620004a56000396000f3fe608060405234801561001057600080fd5b50600436106100885760003560e01c80638da5cb5b1161005b5780638da5cb5b1461011757806395d89b41146101355780639a6d3aaa14610153578063a9059cbb1461018357610088565b806306fdde031461008d57806318160ddd146100ab57806370a08231146100c9578063773a1154146100f9575b600080fd5b61009561019f565b6040516100a291906106c2565b60405180910390f35b6100b361022d565b6040516100c091906106fd565b60405180910390f35b6100e360048036038101906100de919061077b565b610233565b6040516100f091906106fd565b60405180910390f35b61010161027c565b60405161010e91906106fd565b60405180910390f35b61011f6102c4565b60405161012c91906107b7565b60405180910390f35b61013d6102ea565b60405161014a91906106c2565b60405180910390f35b61016d60048036038101906101689190610836565b610378565b60405161017a9190610885565b60405180910390f35b61019d600480360381019061019891906108a0565b61041d565b005b600080546101ac9061090f565b80601f01602080910402602001604051908101604052809291908181526020018280546101d89061090f565b80156102255780601f106101fa57610100808354040283529160200191610225565b820191906000526020600020905b81548152906001019060200180831161020857829003601f168201915b505050505081565b60025481565b6000600460008373ffffffffffffffffffffffffffffffffffffffff1673ffffffffffffffffffffffffffffffffffffffff168152602001908152602001600020549050919050565b6000804290506000816040516020016102959190610961565b604051602081830303815290604052805190602001209050600a8160001c6102bd91906109ab565b9250505090565b600360009054906101000a900473ffffffffffffffffffffffffffffffffffffffff1681565b600180546102f79061090f565b80601f01602080910402602001604051908101604052809291908181526020018280546103239061090f565b80156103705780601f1061034557610100808354040283529160200191610370565b820191906000526020600020905b81548152906001019060200180831161035357829003601f168201915b505050505081565b60008061038361027c565b90506005811180156103925750825b806103a85750600581111580156103a7575082155b5b156103e4576103da600360009054906101000a900473ffffffffffffffffffffffffffffffffffffffff16338661042c565b6001915050610417565b61041133600360009054906101000a900473ffffffffffffffffffffffffffffffffffffffff168661042c565b60009150505b92915050565b61042833838361042c565b5050565b8173ffffffffffffffffffffffffffffffffffffffff168373ffffffffffffffffffffffffffffffffffffffff160361049a576040517f08c379a000000000000000000000000000000000000000000000000000000000815260040161049190610a4e565b60405180910390fd5b80600460008573ffffffffffffffffffffffffffffffffffffffff1673ffffffffffffffffffffffffffffffffffffffff16815260200190815260200160002054101561051c576040517f08c379a000000000000000000000000000000000000000000000000000000000815260040161051390610aba565b60405180910390fd5b80600460008573ffffffffffffffffffffffffffffffffffffffff1673ffffffffffffffffffffffffffffffffffffffff168152602001908152602001600020600082825461056b9190610b09565b9250508190555080600460008473ffffffffffffffffffffffffffffffffffffffff1673ffffffffffffffffffffffffffffffffffffffff16815260200190815260200160002060008282546105c19190610b3d565b925050819055508173ffffffffffffffffffffffffffffffffffffffff168373ffffffffffffffffffffffffffffffffffffffff167fddf252ad1be2c89b69c2b068fc378daa952ba7f163c4a11628f55a4df523b3ef8360405161062591906106fd565b60405180910390a3505050565b600081519050919050565b600082825260208201905092915050565b60005b8381101561066c578082015181840152602081019050610651565b60008484015250505050565b6000601f19601f8301169050919050565b600061069482610632565b61069e818561063d565b93506106ae81856020860161064e565b6106b781610678565b840191505092915050565b600060208201905081810360008301526106dc8184610689565b905092915050565b6000819050919050565b6106f7816106e4565b82525050565b600060208201905061071260008301846106ee565b92915050565b600080fd5b600073ffffffffffffffffffffffffffffffffffffffff82169050919050565b60006107488261071d565b9050919050565b6107588161073d565b811461076357600080fd5b50565b6000813590506107758161074f565b92915050565b60006020828403121561079157610790610718565b5b600061079f84828501610766565b91505092915050565b6107b18161073d565b82525050565b60006020820190506107cc60008301846107a8565b92915050565b6107db816106e4565b81146107e657600080fd5b50565b6000813590506107f8816107d2565b92915050565b60008115159050919050565b610813816107fe565b811461081e57600080fd5b50565b6000813590506108308161080a565b92915050565b6000806040838503121561084d5761084c610718565b5b600061085b858286016107e9565b925050602061086c85828601610821565b9150509250929050565b61087f816107fe565b82525050565b600060208201905061089a6000830184610876565b92915050565b600080604083850312156108b7576108b6610718565b5b60006108c585828601610766565b92505060206108d6858286016107e9565b9150509250929050565b7f4e487b7100000000000000000000000000000000000000000000000000000000600052602260045260246000fd5b6000600282049050600182168061092757607f821691505b60208210810361093a576109396108e0565b5b50919050565b6000819050919050565b61095b610956826106e4565b610940565b82525050565b600061096d828461094a565b60208201915081905092915050565b7f4e487b7100000000000000000000000000000000000000000000000000000000600052601260045260246000fd5b60006109b6826106e4565b91506109c1836106e4565b9250826109d1576109d061097c565b5b828206905092915050565b7f73656e64657220616e642072656365697665722073686f756c6420626520646960008201527f66666572656e7400000000000000000000000000000000000000000000000000602082015250565b6000610a3860278361063d565b9150610a43826109dc565b604082019050919050565b60006020820190508181036000830152610a6781610a2b565b9050919050565b7f4e6f7420656e6f75676820546f6b656e73000000000000000000000000000000600082015250565b6000610aa460118361063d565b9150610aaf82610a6e565b602082019050919050565b60006020820190508181036000830152610ad381610a97565b9050919050565b7f4e487b7100000000000000000000000000000000000000000000000000000000600052601160045260246000fd5b6000610b14826106e4565b9150610b1f836106e4565b9250828203905081811115610b3757610b36610ada565b5b92915050565b6000610b48826106e4565b9150610b53836106e4565b9250828201905080821115610b6b57610b6a610ada565b5b9291505056fea2646970667358221220d288aef15fa7dea4bb15c39d4695840a1262078b28dcea622948600fae8d04d564736f6c63430008130033",
  "linkReferences": {},
  "deployedLinkReferences": {}
}